S02B00004652454552544F535F56392E302E305F61746D65676133325F5A5F5365636F6E6453686F6F742E736B
S11300000C942A000C9447000C9447000C9447006D
S11300100C9447000C9447000C9447000C949103F3
S11300200C9447000C9447000C9447000C94470030
S11300300C9447000C9447000C9447000C94470020
S11300400C9447000C9447000C9447000C94470010
S11300500C94470011241FBECFE5D8E0DEBFCDBF0E
S113006010E0A0E6B0E0E0ECF3E102C005900D92F0
S1130070AA37B107D9F723E0AAE7B0E001C01D927F
S1130080AE31B207E1F70E94DD010C94DE090C9455
S113009000000F931F93CF93DF93EC010E9494070A
S11300A080917A0081111DC0EFE7F0E084E890E0D0
S11300B09183808313821282EBE7F0E087E592E07C
S11300C09383828311821082A3E8B0E014969C93F8
S11300D08E9313971296FC93EE93119781E080937D
S11300E07A00209709F45FC09E012C5F3F4F23964E
S11300F0C635D24008F05AC0E0917F00F0918000EC
S1130100AFE7B0E002C0DF01FC0182819381821776
S1130110930720F4808191810097A9F7C0E0EB3721
S1130120FC0709F446C0CD91DC9111978E010C5F58
S11301301F4F808191818D939C9382819381821B37
S1130140930B8930910510F1BF01620F731FDB011E
S113015013969C938E9312973383228312964D9118
S11301605C9113978FE790E001C0CD01EC01A88169
S1130170B98112962D913C91139724173507A8F352
S1130180EB01B983A883DC016D937C9380916000BB
S11301909091610022813381821B930B90936100C3
S11301A08093600008C000E010E005C000E010E0AB
S11301B002C000E010E00E945508C801DF91CF9111
S11301C01F910F9108950F931F93CF93DF9300977F
S11301D041F1EC018C01045011090E949407F801CB
S11301E042815381AFE7B0E001C0DF01ED91FC91A2
S11301F011972281338124173507B8F32497F983A3
S1130200E8830D931C9320916000309161008A81F2
S11302109B81820F931F90936100809360000E94E2
S11302205508DF91CF911F910F910895FC0103961A
S1130230928381832FEF3FEF3483238396838583D7
S11302409087878310820895FC0111861086089593
S1130250CF93DF939C01FB01DC011196CD91DC91DE
S11302601297D383C2838C819D81958384838C81EF
S11302709D81DC0113967C936E9312977D836C832E
S113028031872087F90180818F5F8083DF91CF914F
S11302900895CF93DF93EB01488159814F3F2FEFAE
S11302A0520721F4FC01A781B0850DC0DC0113962F
S11302B001C0DF011296ED91FC91139720813181E9
S11302C042175307B0F71296ED91FC911397FB83F5
S11302D0EA83D583C483BD83AC831396DC93CE9326
S11302E0129799878887FC0120812F5F2083DF91F3
S11302F0CF910895CF93DF93FC01A085B185C2818E
S1130300D381848195819D838C83C481D5818281AD
S113031093819B838A8311968D919C911297E81700
S1130320F90731F48481958112969C938E931197E9
S1130330118610868C9181508C93DF91CF91089512
S11303408C01C2E0DFEF85B38C2785BB20E04AE057
S113035050E0B80180911C0390911D030E94AE04EB
S1130360811101C0DBBB0E94DC02EDCFCF93DF9390
S113037000D000D01F92CDB7DEB714E085B381273B
S113038085BB20E04AE050E0BE016F5F7F4F809163
S11303901C0390911D030E944F05898188BB8FEF38
S11303A08150F1F78A8188BB8FEF8150F1F78B81FF
S11303B088BB8FEF8150F1F7E1CFEF92FF920F935B
S11303C0CF93DF93CDB7DEB72A970FB6F894DEBF8D
S11303D00FBECDBF8AE0E2E6F0E0DE0111960190A7
S11303E00D928A95E1F78FEF8ABB87BB84BB81BBF3
S11303F040E065E083E00E94810490931D038093B4
S11304001C03892B39F1E12CF12C02E09E012F5FB2
S11304103F4F45E550E060E070E080EA91E00E94E3
S11304206F069E012A5F3F4F45E550E060E070E0B3
S113043080EA91E00E946F0601E020E030E045E5AB
S113044050E060E070E086EB91E00E946F060E944D
S11304506A0705C085E582BB85BB88BB8BBB2A9632
S11304600FB6F894DEBF0FBECDBFDF91CF910F91D1
S1130470FF90EF90089531E1FC013083319722E23F
S113048020833197A3E3A0833197608331977083EE
S113049031971082319760E86083319710823197E9
S11304A062E06083319763E06083319764E0608346
S11304B0319765E06083319766E06083319767E048
S11304C06083319768E06083319769E06083319796
S11304D060E1608331973083319732E13083319723
S11304E033E13083319734E13083319735E1308320
S11304F0319736E13083319737E13083319738E1F2
S11305003083319739E13083319730E2308331974A
S113051031E2308331972083319723E2208331976E
S1130520408331975083319726E22083319727E225
S11305302083319728E22083319729E22083319761
S113054020E32083319721E32083869708951BBC01
S11305508CE78ABD8BE08EBD89B7806189BFA0918D
S11305601A03B0911B03CD91CDBFDD91DEBFFF9186
S1130570EF91DF91CF91BF91AF919F918F917F9137
S11305806F915F914F913F912F911F910F91FF9028
S1130590EF90DF90CF90BF90AF909F908F907F901F
S11305A06F905F904F903F902F901F900F900FBED1
S11305B00F90089581E008950F920FB6F8940F926A
S11305C01F9211242F923F924F925F926F927F92CB
S11305D08F929F92AF92BF92CF92DF92EF92FF924F
S11305E00F931F932F933F934F935F936F937F9337
S11305F08F939F93AF93BF93CF93DF93EF93FF9327
S1130600A0911A03B0911B030DB60D920EB60D9274
S11306100E94D408A0911A03B0911B03CD91CDBFC1
S1130620DD91DEBFFF91EF91DF91CF91BF91AF914B
S11306309F918F917F916F915F914F913F912F91F6
S11306401F910F91FF90EF90DF90CF90BF90AF90EC
S11306509F908F907F906F905F904F903F902F90DE
S11306601F900F900FBE0F9008950F920FB6F8943D
S11306700F921F9211242F923F924F925F926F928A
S11306807F928F929F92AF92BF92CF92DF92EF921E
S1130690FF920F931F932F933F934F935F936F9307
S11306A07F938F939F93AF93BF93CF93DF93EF93F6
S11306B0FF93A0911A03B0911B030DB60D920EB6D1
S11306C00D920E949A0781110E94D408A0911A03E6
S11306D0B0911B03CD91CDBFDD91DEBFFF91EF91B2
S11306E0DF91CF91BF91AF919F918F917F916F9146
S11306F05F914F913F912F911F910F91FF90EF9038
S1130700DF90CF90BF90AF909F908F907F906F902D
S11307105F904F903F902F901F900F900FBE0F90BF
S113072008950E94350318950F931F93CF93DF9379
S1130730EC01042F1A8D4C8D4423B9F1011116C01C
S113074050E08C819D810E94D5092C8D8C819D81E6
S1130750820F911D9D838C832A813B81821793078D
S113076020F1888199819D838C831FC050E08E8104
S11307709F810E94D5098C8D90E091958195910976
S11307802E813F81280F391F3F832E834881598151
S11307902417350730F42A813B81820F931F9F83EE
S11307A08E83023011F4111111501F5F1A8F80E0F3
S11307B0DF91CF911F910F910895FC01448D442343
S11307C0A9F050E026813781240F351F3783268313
S11307D0828193812817390720F080819181978342
S11307E08683CB01668177810E94D5090895EF92B3
S11307F0FF920F931F93CF938C010FB6F8940F922F
S1130800FC01C68D1C16ACF48189811106C011C08F
S1130810F8018189811105C00CC07801F1E1EF0E66
S1130820F11CC7010E944C0981110E94D109C150D9
S113083079F78FEFF801868F0F900FBE0FB6F894FB
S11308400F92C58D1C16ACF48085811106C011C0B1
S1130850F8018085811105C00CC07801F8E0EF0E25
S1130860F11CC7010E944C0981110E94D109C15099
S113087079F78FEFF801858F0F900FBECF911F91FD
S11308800F91FF90EF900895CF93DF93EC010FB693
S1130890F8940F92488159812C8D30E07B8D729FA2
S11308A0C001739F900D1124FA01E80FF91FFB8317
S11308B0EA831A8E5D834C83821B930B840F951FEE
S11308C09F838E838FEF8D8F8E8F61110CC08885EF
S11308D0882389F0CE0108960E944C09882359F098
S11308E00E94DC0208C0CE0108960E941601CE01C7
S11308F041960E9416010F900FBE81E0DF91CF91C7
S113090008950F931F93CF93DF93082F162F662319
S1130910C1F0869FC00111244F960E944900EC014A
S1130920009741F415C00B8F1C8F61E0CE010E942B
S113093044040EC04F9699838883F5CFD983C88326
S1130940F2CF8FE190E00E944900EC01892BB1F7CE
S1130950CE01DF91CF911F910F9108959F92AF9295
S1130960BF92CF92DF92EF92FF920F931F93CF9398
S1130970DF9300D000D01F92CDB7DEB78C016B019E
S11309805D834C83A22EB12C992493947C0188E03E
S1130990E80EF11C0FB6F8940F92F801928D838D36
S11309A0981718F0F2E0AF1219C04A2DB601C80129
S11309B00E949403F8019189992349F0C801419652
S11309C00E944C09882331F00E94DC0203C081118B
S11309D00E94DC020F900FBE81E050C08C819D818B
S11309E0892B21F40F900FBE80E048C0B11005C0E0
S11309F0CE0101960E949409B92C0F900FBE0E945B
S1130A0094070FB6F8940F92F801858D8F3F09F47F
S1130A10158EF801868D8F3F09F4168E0F900FBE48
S1130A20BE016C5F7F4FCE0101960E949F09811128
S1130A301FC00FB6F8940F92F801928D0F900FBE5D
S1130A40838D98130FC06C817D81C7010E943A0980
S1130A50C8010E94F7030E94550881119BCF0E9490
S1130A60DC0298CFC8010E94F7030E94550892CF78
S1130A70C8010E94F7030E94550880E00F900F9070
S1130A800F900F900F90DF91CF911F910F91FF90D6
S1130A90EF90DF90CF90BF90AF909F9008958F928A
S1130AA09F92AF92BF92CF92DF92EF92FF920F93F9
S1130AB01F93CF93DF9300D000D01F92CDB7DEB742
S1130AC08C015B015D834C83822EE12C99249394E9
S1130AD06C0181E1C80ED11C0FB6F8940F92F80195
S1130AE0F28CFF2041F1C680D780B501C8010E9475
S1130AF0DD0381100FC0FA94F801F28E80858823FB
S1130B00B1F0C80108960E944C09882381F00E9424
S1130B10DC020DC0F801D782C6828189882339F0AE
S1130B20C80141960E944C0981110E94DC020F9079
S1130B300FBE81E057C08C819D81892B21F40F90D9
S1130B400FBE80E04FC0E11005C0CE0101960E94A7
S1130B509409E92C0F900FBE0E9494070FB6F894E5
S1130B600F92F801858D8F3F09F4158EF801868D5B
S1130B708F3F09F4168E0F900FBEBE016C5F7F4F3E
S1130B80CE0101960E949F0981111EC00FB6F894F0
S1130B900F92F801828D0F900FBE81110FC06C81EE
S1130BA07D81C6010E943A09C8010E94F7030E9490
S1130BB05508811191CF0E94DC028ECFC8010E949A
S1130BC0F7030E94550888CFC8010E94F7030E94CA
S1130BD055080FB6F8940F92F801828D0F900FBE4E
S1130BE081117ACF0F900F900F900F900F90DF919B
S1130BF0CF911F910F91FF90EF90DF90CF90BF9016
S1130C00AF909F908F900895E091F402F091F502D7
S1130C108081811107C08FEF9FEF9093DF02809353
S1130C20DE020895E091F402F091F5020580F68168
S1130C30E02D0680F781E02D828193819093DF027D
S1130C408093DE020895C8E0D3E088818230F0F317
S1130C500E94DC02FACF0F931F93CF93DF93EC0132
S1130C600091E6021091E70280911A0390911B0310
S1130C7002960E947A01C00FD11FE0911A03F091ED
S1130C801B03D383C283C017D10768F460911A038E
S1130C9070911B038091F2029091F3026E5F7F4F7B
S1130CA00E94490117C060911A0370911B0380913F
S1130CB0F4029091F5026E5F7F4F0E94490180918A
S1130CC0DE029091DF02C817D90720F4D093DF0227
S1130CD0C093DE02DF91CF911F910F9108954F923F
S1130CE05F926F927F928F929F92AF92BF92CF92B8
S1130CF0DF92EF92FF920F93CF93DF934C016B013E
S1130D005A012901CA010E9449003C01892B09F4B6
S1130D10D0C086E290E00E944900EC01892B71F07A
S1130D20788E6F8A81E0A81AB108A60CB71CD60188
S1130D308C91898F8C91811105C018C0C3010E94C8
S1130D40E300B7C0AE01465E5F4FF6013196B8E0EE
S1130D50CB0ED11CCF012191DA012D93AD01DC0121
S1130D608C91882319F0EC15FD05A1F718A2011147
S1130D7001E00E8B6E01B2E0CB0ED11CC6010E94C5
S1130D802401CE010C960E942401D987C88782E0F1
S1130D9090E0801B91099D878C87DB8BCA8B19A2FD
S1130DA01AA21BA21CA21DA2A201B401C5010E9489
S1130DB03B0299838883E114F10419F0F701D1838C
S1130DC0C0830FB6F8940F928091E8028F5F8093EE
S1130DD0E80280911A0390911B03892B49F5D09363
S1130DE01B03C0931A038091E802813089F588E0DF
S1130DF093E00E94160181E193E00E9416018FEFB7
S1130E0092E00E94160186EF92E00E94160189EE9C
S1130E1092E00E9416018FEF92E09093F502809386
S1130E20F40286EF92E09093F3028093F20210C0F2
S1130E308091E40281110CC0E0911A03F0911B032C
S1130E4096898E89891720F0D0931B03C0931A03C7
S1130E508091E0028F5F8093E0028E899091E50299
S1130E60981710F48093E50290E09C01220F331F41
S1130E70220F331F220F331F820F931FB601885F87
S1130E809C4F0E9428010F900FBE8091E40288239A
S1130E9061F0E0911A03F0911B0396898E899817EB
S1130EA030F40E94DC0281E005C081E003C081E0EF
S1130EB001C08FEFDF91CF910F91FF90EF90DF9002
S1130EC0CF90BF90AF909F908F907F906F905F90E6
S1130ED04F900895EF92FF920F930F2EFCEDEF2E9B
S1130EE0F2E0FF2EF02D00E020E030E045E550E098
S1130EF064E770E083E296E00E946F06813081F43B
S1130F00F8948FEF9FEF9093DF028093DE0281E0ED
S1130F108093E4021092E7021092E6020E94A70274
S1130F200F91FF90EF9008958091DB028F5F809383
S1130F30DB020895CF92DF92EF92FF920F931F93FB
S1130F40CF93DF938091DB02811199C0E090E60298
S1130F50F090E7028FEFE81AF80AF092E702E092C5
S1130F60E602E114F104B9F48091F4029091F502DF
S1130F702091F2023091F3023093F5022093F402AF
S1130F809093F3028093F2028091E1028F5F809349
S1130F90E1020E9404068091DE029091DF02E816CD
S1130FA0F90610F4D12C53C0D12CCC24C394E09175
S1130FB0F402F091F5028081811107C08FEF9FEF59
S1130FC09093DF028093DE0242C0E091F402F0913C
S1130FD0F5020580F681E02DC681D7818A819B8147
S1130FE0E816F90628F49093DF028093DE022FC0FE
S1130FF08E010E5F1F4FC8010E947A018C899D8962
S1131000892B21F0CE010C960E947A018E89909151
S1131010E502981710F48093E50290E09C01220FFA
S1131020331F220F331F220F331F820F931FB80168
S1131030885F9C4F0E942801E0911A03F0911B03E2
S11310409E898689981708F4B2CFDC2CB0CFE09142
S11310501A03F0911B03868990E0FC01EE0FFF1F39
S1131060EE0FFF1FEE0FFF1F8E0F9F1FFC01E85FA7
S1131070FC4F8081823048F0DD24D39406C08091F7
S1131080E3028F5F8093E302D12C8091E2028823F4
S113109011F0DD24D3948D2DDF91CF911F910F9109
S11310A0FF90EF90DF90CF900895DF92EF92FF9240
S11310B00F931F93CF93DF930FB6F8940F92809101
S11310C0DB0281508093DB028091DB0281115FC0DF
S11310D08091E802811133C05DC0D7011596ED916E
S11310E0FC911697C681D781CE010C960E947A0195
S11310F08E010E5F1F4FC8010E947A018E89909164
S1131100E502981710F48093E50290E09C01220F09
S1131110331F220F331F220F331F820F931FB80177
S1131120885F9C4F0E942801E0911A03F0911B03F1
S11311309E898689981768F0D092E2020AC0C0E0BE
S1131140D0E00F2EF9EEEF2EF2E0FF2EF02DDD248D
S1131150D394F70180818111C0CFCD2B11F00E946F
S11311600406C091E302CC2351F0D1E00E949A0717
S11311708111D093E202C150C9F71092E302809129
S1131180E202882331F00E94DC0281E003C080E0A7
S113119001C080E00F900FBEDF91CF911F910F919E
S11311A0FF90EF90DF9008958091DB02882321F077
S11311B081E08093E20208951092E2022091E50218
S11311C0822F90E0FC01EE0FFF1FEE0FFF1FEE0FCA
S11311D0FF1FE80FF91FE85FFC4F3081311111C088
S11311E02150822F90E0FC01EE0FFF1FEE0FFF1F36
S11311F0EE0FFF1FE80FF91FE85FFC4F3081332328
S113120079F3AC01440F551F440F551F440F551F6C
S1131210480F591FDA01A85FBC4F1196ED91FC915C
S113122012970280F381E02D1296FC93EE931197AE
S1131230455F5C4FE417F50729F442815381FD01B2
S113124052834183FC01EE0FFF1FEE0FFF1FEE0FD1
S1131250FF1F8E0F9F1FFC01E85FFC4F0180F2818E
S1131260E02D8681978190931B0380931A0320932A
S1131270E5020895CF93DF93EB0160911A03709117
S11312801B03645F7F4F0E94490161E0CE010E940D
S11312902B06DF91CF9108950F931F93CF93DF9384
S11312A0DC011596ED91FC911697C681D7818E01CC
S11312B0045F1F4FC8010E947A018091DB028111F3
S11312C01CC00A501109C8010E947A018E899091AC
S11312D0E502981710F48093E50290E09C01220F38
S11312E0331F220F331F220F331F820F931FB801A6
S11312F0885F9C4F0E94280105C0B80189EE92E0E6
S11313000E942801E0911A03F0911B039E898689AB
S1131310891720F481E08093E20201C080E0DF912C
S1131320CF911F910F9108952091E102FC01208338
S11313302091E6023091E702328321830895CF930E
S1131340DF93FC010FB6F8940F922091E6023091DE
S1131350E7028091E1029081981729F081819281BE
S113136028173907B0F4A181B281EB014881598172
S1131370C9018A1B9B0B8417950768F4CF01A21B34
S1131380B30B4A0F5B1F598348830E94940980E082
S113139003C081E001C081E00F900FBEDF91CF91C7
S11313A0089581E08093E2020895FB01DC0102C00C
S11313B001900D9241505040D8F70895F894FFCF12
S11313C057020204066C0003050770004D534100E8
S10D13D04D4D410049444C45000016
S9030000FC
