S02B00004652454552544F535F56392E302E305F61746D65676133325F5A5F5365636F6E6453686F6F742E736B
S11300000C942A000C9447000C9447000C9447006D
S11300100C9447000C9447000C9447000C943E0346
S11300200C9447000C9447000C9447000C94470030
S11300300C9447000C9447000C9447000C94470020
S11300400C9447000C9447000C9447000C94470010
S11300500C94470011241FBECFE5D8E0DEBFCDBF0E
S113006010E0A0E6B0E0E0E3FEE002C005900D92EF
S1130070A836B107D9F723E0A8E6B0E001C01D9285
S1130080A632B207E1F70E94C1010C9416070C9442
S113009000000F931F93CF93DF93EC010E942B0575
S11300A08091680081111DC0EDE6F0E082E790E0E8
S11300B09183808313821282E9E6F0E087E592E07F
S11300C09383828311821082A1E7B0E014969C93FB
S11300D08E9313971296FC93EE93119781E080937D
S11300E06800209709F45FC09E012C5F3F4F239660
S11300F0C635D24008F05AC0E0916D00F0916E0010
S1130100ADE6B0E002C0DF01FC0182819381821779
S1130110930720F4808191810097A9F7C0E0E93624
S1130120FC0709F446C0CD91DC9111978E010C5F58
S11301301F4F808191818D939C9382819381821B37
S1130140930B8930910510F1BF01620F731FDB011E
S113015013969C938E9312973383228312964D9118
S11301605C9113978DE690E001C0CD01EC01A8816C
S1130170B98112962D913C91139724173507A8F352
S1130180EB01B983A883DC016D937C9380916000BB
S11301909091610022813381821B930B90936100C3
S11301A08093600008C000E010E005C000E010E0AB
S11301B002C000E010E00E94EC05C801DF91CF917D
S11301C01F910F9108950F931F93CF93DF9300977F
S11301D041F1EC018C01045011090E942B05F80136
S11301E042815381ADE6B0E001C0DF01ED91FC91A5
S11301F011972281338124173507B8F32497F983A3
S1130200E8830D931C9320916000309161008A81F2
S11302109B81820F931F90936100809360000E94E2
S1130220EC05DF91CF911F910F910895FC01039686
S1130230928381832FEF3FEF3483238396838583D7
S11302409087878310820895FC0111861086089593
S1130250CF93DF939C01FB01DC011196CD91DC91DE
S11302601297D383C2838C819D81958384838C81EF
S11302709D81DC0113967C936E9312977D836C832E
S113028031872087F90180818F5F8083DF91CF914F
S11302900895CF93DF93EB01488159814F3F2FEFAE
S11302A0520721F4FC01A781B0850DC0DC0113962F
S11302B001C0DF011296ED91FC91139720813181E9
S11302C042175307B0F71296ED91FC911397FB83F5
S11302D0EA83D583C483BD83AC831396DC93CE9326
S11302E0129799878887FC0120812F5F2083DF91F3
S11302F0CF910895CF93DF93FC01A085B185C2818E
S1130300D381848195819D838C83C481D5818281AD
S113031093819B838A8311968D919C911297E81700
S1130320F90731F48481958112969C938E931197E9
S1130330118610868C9181508C93DF91CF91089512
S1130340EC0118E082B3812782BB888181508883C5
S113035084E190E00E946B06F5CF6C01CFEFE12CB5
S1130360F12C04E0960145E550E060E070E080EA9D
S113037091E00E94A40380E090E00E94AC04C2BB20
S1130380EECFEF92FF920F93CF93DF931F92CDB7EF
S1130390DEB78FEF8ABB87BB84BB81BB8983E12C2B
S11303A0F12C05E09E012F5F3F4F45E550E060E0F2
S11303B070E08DEA91E00E94A4030E94010580E0B0
S11303C090E00F90DF91CF910F91FF90EF900895FF
S11303D031E1FC013083319722E220833197A3E39A
S11303E0A08331976083319770833197108231975E
S11303F060E8608331971082319762E060833197BF
S113040063E06083319764E06083319765E06083E3
S1130410319766E06083319767E06083319768E0E5
S11304206083319769E06083319760E1608331973D
S11304303083319732E13083319733E13083319720
S113044034E13083319735E13083319736E13083BD
S1130450319737E13083319738E13083319739E18F
S11304603083319730E23083319731E230833197F2
S11304702083319723E2208331974083319750833F
S1130480319726E22083319727E22083319728E2AF
S11304902083319729E22083319720E32083319709
S11304A021E32083869708951BBC8CE78ABD8BE0EB
S11304B08EBD89B7806189BFA0912403B0912503C3
S11304C0CD91CDBFDD91DEBFFF91EF91DF91CF9153
S11304D0BF91AF919F918F917F916F915F914F9158
S11304E03F912F911F910F91FF90EF90DF90CF904C
S11304F0BF90AF909F908F907F906F905F904F9040
S11305003F902F901F900F900FBE0F90089581E0A1
S113051008950F920FB6F8940F921F9211242F9200
S11305203F924F925F926F927F928F929F92AF927F
S1130530BF92CF92DF92EF92FF920F931F932F936C
S11305403F934F935F936F937F938F939F93AF9357
S1130550BF93CF93DF93EF93FF93A0912403B091C4
S113056025030DB60D920EB60D920E94B006A09111
S11305702403B0912503CD91CDBFDD91DEBFFF9162
S1130580EF91DF91CF91BF91AF919F918F917F9127
S11305906F915F914F913F912F911F910F91FF9018
S11305A0EF90DF90CF90BF90AF909F908F907F900F
S11305B06F905F904F903F902F901F900F900FBEC1
S11305C00F9008950F920FB6F8940F921F92112472
S11305D02F923F924F925F926F927F928F929F924F
S11305E0AF92BF92CF92DF92EF92FF920F931F933D
S11305F02F933F934F935F936F937F938F939F9327
S1130600AF93BF93CF93DF93EF93FF93A091240312
S1130610B09125030DB60D920EB60D920E943105D0
S113062081110E94B006A0912403B0912503CD91BD
S1130630CDBFDD91DEBFFF91EF91DF91CF91BF91EF
S1130640AF919F918F917F916F915F914F913F9166
S11306502F911F910F91FF90EF90DF90CF90BF905B
S1130660AF909F908F907F906F905F904F903F904E
S11306702F901F900F900FBE0F9008950E94E202DA
S11306801895E091EC02F091ED028081811107C090
S11306908FEF9FEF9093CD028093CC020895E09169
S11306A0EC02F091ED020580F681E02D0680F781E1
S11306B0E02D828193819093CD028093CC020895A2
S11306C00F931F93CF93DF93EC010091D402109109
S11306D0D502809124039091250302960E947A0109
S11306E0C00FD11FE0912403F0912503D383C2836B
S11306F0C017D10768F46091240370912503809199
S1130700EA029091EB026E5F7F4F0E94490117C08D
S113071060912403709125038091EC029091ED0285
S11307206E5F7F4F0E9449018091CC029091CD026F
S1130730C817D90720F4D093CD02C093CC02DF911F
S1130740CF911F910F9108954F925F926F927F9274
S11307508F929F92AF92BF92CF92DF92EF92FF92CD
S11307600F93CF93DF934C016B015A012901CA0106
S11307700E9449003C01892B09F4DDC086E290E027
S11307800E944900EC01892B71F0788E6F8A81E018
S1130790A81AB108A60CB71CD6018C91898F8C912C
S11307A0811105C018C0C3010E94E300C4C0AE019A
S11307B0465E5F4FF6013196B8E0CB0ED11CCF01F7
S11307C02191DA012D93AD01DC018C91882319F07C
S11307D0EC15FD05A1F718A2043008F003E00E8B18
S11307E06E01B2E0CB0ED11CC6010E942401CE01E1
S11307F00C960E942401D987C88784E090E0801B6E
S113080091099D878C87DB8BCA8B19A21AA21BA224
S11308101CA21DA2A201B401C5010E94E801998392
S11308208883E114F10419F0F701D183C0830FB672
S1130830F8940F928091D6028F5F8093D6028091B4
S1130840240390912503892BA9F5D0932503C09304
S113085024038091D6028130E9F580E093E00E9480
S1130860160189E093E00E94160182E193E00E9460
S113087016018BE193E00E94160187EF92E00E943B
S113088016018EEE92E00E94160181EE92E00E9423
S1130890160188ED92E00E94160187EF92E0909392
S11308A0ED028093EC028EEE92E09093EB02809343
S11308B0EA0210C08091D20281110CC0E09124039D
S11308C0F091250396898E89891720F0D09325030A
S11308D0C09324038091CE028F5F8093CE028E89D1
S11308E09091D302981710F48093D30290E09C0166
S11308F0220F331F220F331F220F331F820F931F28
S1130900B60180509D4F0E9428010F900FBE809128
S1130910D202882361F0E0912403F09125039689A3
S11309208E89981730F40E94890281E005C081E025
S113093003C081E001C08FEFDF91CF910F91FF9051
S1130940EF90DF90CF90BF90AF909F908F907F906B
S11309506F905F904F9008950F931F93CF93DF9301
S1130960EC010FB6F8940F92892B21F4C091240363
S1130970D09125038E010E5F1F4FC8010E947A019A
S11309808C899D89892B21F0CE010C960E947A01D5
S11309908091CE028F5F8093CE0280912403909148
S11309A02503C817D90759F4B80188ED92E00E94CD
S11309B028018091D7028F5F8093D7020EC0809167
S11309C0D60281508093D6028F89988D0E94E300CD
S11309D0CE010E94E3000E9441030F900FBE80915C
S11309E0D202882349F08091240390912503C817EB
S11309F0D90711F40E948902DF91CF911F910F91C1
S1130A000895EF92FF920F930F2EFAECEF2EF2E07F
S1130A10FF2EF02D00E020E030E045E550E062E6F6
S1130A2070E08FE796E00E94A403813081F4F8948B
S1130A308FEF9FEF9093CD028093CC0281E080935F
S1130A40D2021092D5021092D4020E9454020F9145
S1130A50FF90EF9008958091C9028F5F8093C9023F
S1130A600895CF92DF92EF92FF920F931F93CF934B
S1130A70DF938091C902811199C0E090D402F09073
S1130A80D5028FEFE81AF80AF092D502E092D40268
S1130A90E114F104B9F48091EC029091ED022091FB
S1130AA0EA023091EB023093ED022093EC02909332
S1130AB0EB028093EA028091CF028F5F8093CF0292
S1130AC00E9441038091CC029091CD02E816F90670
S1130AD010F4D12C53C0D12CCC24C394E091EC025B
S1130AE0F091ED028081811107C08FEF9FEF909309
S1130AF0CD028093CC0242C0E091EC02F091ED0271
S1130B000580F681E02DC681D7818A819B81E81614
S1130B10F90628F49093CD028093CC022FC08E0165
S1130B200E5F1F4FC8010E947A018C899D89892B11
S1130B3021F0CE010C960E947A018E899091D30205
S1130B40981710F48093D30290E09C01220F331F76
S1130B50220F331F220F331F820F931FB8018050BF
S1130B609D4F0E942801E0912403F09125039E8962
S1130B708689981708F4B2CFDC2CB0CFE091240317
S1130B80F0912503868990E0FC01EE0FFF1FEE0F24
S1130B90FF1FEE0FFF1F8E0F9F1FFC01E050FD4F44
S1130BA08081823048F0DD24D39406C08091D10244
S1130BB08F5F8093D102D12C8091D002882311F0D1
S1130BC0DD24D3948D2DDF91CF911F910F91FF9050
S1130BD0EF90DF90CF900895DF92EF92FF920F9302
S1130BE01F93CF93DF930FB6F8940F928091C902AD
S1130BF081508093C9028091C90281115FC08091A4
S1130C00D602811133C05DC0D7011596ED91FC91D8
S1130C101697C681D781CE010C960E947A018E0167
S1130C200E5F1F4FC8010E947A018E899091D302F2
S1130C30981710F48093D30290E09C01220F331F85
S1130C40220F331F220F331F820F931FB8018050CE
S1130C509D4F0E942801E0912403F09125039E8971
S1130C608689981768F0D092D0020AC0C0E0D0E01C
S1130C700F2EF1EEEF2EF2E0FF2EF02DDD24D394B3
S1130C80F70180818111C0CFCD2B11F00E94410367
S1130C90C091D102CC2351F0D1E00E9431058111E1
S1130CA0D093D002C150C9F71092D1028091D002E2
S1130CB0882331F00E94890281E003C080E001C0F2
S1130CC080E00F900FBEDF91CF911F910F91FF90A5
S1130CD0EF90DF900895CF93DF93EC01892B51F0CF
S1130CE00E942B0560E0CE010E9460030E94EC0587
S1130CF0811102C00E948902DF91CF91089508ED0D
S1130D0012E029C00E942B05D801CC910E94EC0569
S1130D10CC2309F10FB6F8940F92D8011596ED91F2
S1130D20FC911697C681D781CE0102960E947A0162
S1130D308091D60281508093D6028091D70281504F
S1130D408093D7020F900FBE8F89988D0E94E30085
S1130D50CE010E94E3008091D7028111D3CFFBCF53
S1130D608091C902882321F081E08093D002089504
S1130D701092D0022091D302822F90E0FC01EE0F5A
S1130D80FF1FEE0FFF1FEE0FFF1FE80FF91FE050CC
S1130D90FD4F3081311111C02150822F90E0FC01B0
S1130DA0EE0FFF1FEE0FFF1FEE0FFF1FE80FF91FDF
S1130DB0E050FD4F3081332379F3AC01440F551FCC
S1130DC0440F551F440F551F480F591FDA01A050F7
S1130DD0BD4F1196ED91FC9112970280F381E02DA5
S1130DE01296FC93EE9311974D5F5C4FE417F50751
S1130DF029F442815381FD0152834183FC01EE0FAA
S1130E00FF1FEE0FFF1FEE0FFF1F8E0F9F1FFC0132
S1130E10E050FD4F0180F281E02D8681978190930F
S1130E202503809324032093D3020895F894FFCFDD
S10B0E30570249444C4500003F
S9030000FC
