S02B00004652454552544F535F56392E302E305F61746D65676133325F5A5F5365636F6E6453686F6F742E736B
S11300000C942A000C9447000C9447000C9447006D
S11300100C9447000C9447000C9447000C94740310
S11300200C9447000C9447000C9447000C94470030
S11300300C9447000C9447000C9447000C94470020
S11300400C9447000C9447000C9447000C94470010
S11300500C94470011241FBECFE5D8E0DEBFCDBF0E
S113006010E0A0E6B0E0E0EAF3E102C005900D92F2
S1130070A836B107D9F723E0A8E6B0E001C01D9285
S1130080AC30B207E1F70E94E1010C94CE090C9464
S113009000000F931F93CF93DF93EC010E9470072E
S11300A08091680081111DC0EDE6F0E082E790E0E8
S11300B09183808313821282E9E6F0E087E592E07F
S11300C09383828311821082A1E7B0E014969C93FB
S11300D08E9313971296FC93EE93119781E080937D
S11300E06800209709F45FC09E012C5F3F4F239660
S11300F0C635D24008F05AC0E0916D00F0916E0010
S1130100ADE6B0E002C0DF01FC0182819381821779
S1130110930720F4808191810097A9F7C0E0E93624
S1130120FC0709F446C0CD91DC9111978E010C5F58
S11301301F4F808191818D939C9382819381821B37
S1130140930B8930910510F1BF01620F731FDB011E
S113015013969C938E9312973383228312964D9118
S11301605C9113978DE690E001C0CD01EC01A8816C
S1130170B98112962D913C91139724173507A8F352
S1130180EB01B983A883DC016D937C9380916000BB
S11301909091610022813381821B930B90936100C3
S11301A08093600008C000E010E005C000E010E0AB
S11301B002C000E010E00E943108C801DF91CF9135
S11301C01F910F9108950F931F93CF93DF9300977F
S11301D041F1EC018C01045011090E947007F801EF
S11301E042815381ADE6B0E001C0DF01ED91FC91A5
S11301F011972281338124173507B8F32497F983A3
S1130200E8830D931C9320916000309161008A81F2
S11302109B81820F931F90936100809360000E94E2
S11302203108DF91CF911F910F910895FC0103963E
S1130230928381832FEF3FEF3483238396838583D7
S11302409087878310820895FC0111861086089593
S1130250CF93DF939C01FB01DC011196CD91DC91DE
S11302601297D383C2838C819D81958384838C81EF
S11302709D81DC0113967C936E9312977D836C832E
S113028031872087F90180818F5F8083DF91CF914F
S11302900895CF93DF93EB01488159814F3F2FEFAE
S11302A0520721F4FC01A781B0850DC0DC0113962F
S11302B001C0DF011296ED91FC91139720813181E9
S11302C042175307B0F71296ED91FC911397FB83F5
S11302D0EA83D583C483BD83AC831396DC93CE9326
S11302E0129799878887FC0120812F5F2083DF91F3
S11302F0CF910895CF93DF93FC01A085B185C2818E
S1130300D381848195819D838C83C481D5818281AD
S113031093819B838A8311968D919C911297E81700
S1130320F90731F48481958112969C938E931197E9
S1130330118610868C9181508C93DF91CF91089512
S1130340CF93DF931F92CDB7DEB7898312E00FEF0F
S113035085B3812785BB89818BBB20E04AE050E0CF
S1130360BE016F5F7F4F80910A0390910B030E943F
S1130370910499819F5F9983811101C00BBB84E62D
S113038090E00E94B008E4CFCF93DF931F92CDB7E3
S1130390DEB7198214E085B3812785BB20E04AE0EB
S11303A050E0BE016F5F7F4F80910A0390910B0371
S11303B00E943205898188BB84E690E00E94B008DF
S11303C0EACFEF92FF920F93CF93DF931F92CDB7B3
S11303D0DEB78FEF8ABB87BB84BB81BB898340E0D8
S11303E062E082E00E94640490930B0380930A030A
S11303F0892B11F48FEF82BBE12CF12C01E09E01DB
S11304002F5F3F4F44E650E060E070E080EA91E007
S11304100E944B069E012F5F3F4F44E650E060E090
S113042070E084EC91E00E944B060E9446070F9016
S1130430DF91CF910F91FF90EF90089531E1FC018E
S11304403083319722E220833197A3E3A08331974D
S113045060833197708331971082319760E86083AD
S113046031971082319762E06083319763E0608353
S1130470319764E06083319765E06083319766E08B
S11304806083319767E06083319768E060833197D8
S113049069E06083319760E16083319730833197FD
S11304A032E13083319733E13083319734E1308363
S11304B0319735E13083319736E13083319737E135
S11304C03083319738E13083319739E13083319784
S11304D030E23083319731E2308331972083319792
S11304E023E220833197408331975083319726E26A
S11304F02083319727E22083319728E220833197A4
S113050029E22083319720E32083319721E320835C
S1130510869708951BBC8CE78ABD8BE08EBD89B796
S1130520806189BFA0910803B0910903CD91CDBF2B
S1130530DD91DEBFFF91EF91DF91CF91BF91AF913C
S11305409F918F917F916F915F914F913F912F91E7
S11305501F910F91FF90EF90DF90CF90BF90AF90DD
S11305609F908F907F906F905F904F903F902F90CF
S11305701F900F900FBE0F90089581E008950F9281
S11305800FB6F8940F921F9211242F923F924F921C
S11305905F926F927F928F929F92AF92BF92CF920F
S11305A0DF92EF92FF920F931F932F933F934F93FA
S11305B05F936F937F938F939F93AF93BF93CF93E7
S11305C0DF93EF93FF93A0910803B09109030DB655
S11305D00D920EB60D920E94C408A0910803B0912A
S11305E00903CD91CDBFDD91DEBFFF91EF91DF9186
S11305F0CF91BF91AF919F918F917F916F915F91B7
S11306004F913F912F911F910F91FF90EF90DF90A9
S1130610CF90BF90AF909F908F907F906F905F909E
S11306204F903F902F901F900F900FBE0F90089502
S11306300F920FB6F8940F921F9211242F923F92AB
S11306404F925F926F927F928F929F92AF92BF92DE
S1130650CF92DF92EF92FF920F931F932F933F93CA
S11306604F935F936F937F938F939F93AF93BF93B6
S1130670CF93DF93EF93FF93A0910803B091090305
S11306800DB60D920EB60D920E94760781110E944E
S1130690C408A0910803B0910903CD91CDBFDD91A9
S11306A0DEBFFF91EF91DF91CF91BF91AF919F9109
S11306B08F917F916F915F914F913F912F911F91F6
S11306C00F91FF90EF90DF90CF90BF90AF909F90ED
S11306D08F907F906F905F904F903F902F901F90DE
S11306E00F900FBE0F9008950E94180318950F9352
S11306F01F93CF93DF93EC01042F1A8D4C8D442369
S1130700B9F1011116C050E08C819D810E94C50988
S11307102C8D8C819D81820F911D9D838C832A81D8
S11307203B818217930720F1888199819D838C8373
S11307301FC050E08E819F810E94C5098C8D90E07E
S11307409195819591092E813F81280F391F3F830F
S11307502E83488159812417350730F42A813B813F
S1130760820F931F9F838E83023011F41111115055
S11307701F5F1A8F80E0DF91CF911F910F91089531
S1130780FC01448D4423A9F050E026813781240FD5
S1130790351F37832683828193812817390720F0F8
S11307A08081918197838683CB01668177810E94C2
S11307B0C5090895EF92FF920F931F93CF938C0175
S11307C00FB6F8940F92FC01C68D1C16ACF4818907
S11307D0811106C011C0F8018189811105C00CC0C6
S11307E07801F1E1EF0EF11CC7010E943C0981116F
S11307F00E94C109C15079F78FEFF801868F0F90DD
S11308000FBE0FB6F8940F92C58D1C16ACF48085FC
S1130810811106C011C0F8018085811105C00CC08A
S11308207801F8E0EF0EF11CC7010E943C09811128
S11308300E94C109C15079F78FEFF801858F0F909D
S11308400FBECF911F910F91FF90EF900895CF931A
S1130850DF93EC010FB6F8940F92488159812C8DE7
S113086030E07B8D729FC001739F900D1124FA01BB
S1130870E80FF91FFB83EA831A8E5D834C83821B86
S1130880930B840F951F9F838E838FEF8D8F8E8F95
S113089061110CC08885882389F0CE0108960E94D6
S11308A03C09882359F00E94BF0208C0CE01089673
S11308B00E941601CE0141960E9416010F900FBEB0
S11308C081E0DF91CF9108950F931F93CF93DF932E
S11308D0082F162F6623C1F0869FC00111244F965E
S11308E00E944900EC01009741F415C00B8F1C8F46
S11308F061E0CE010E9427040EC04F96998388833D
S1130900F5CFD983C883F2CF8FE190E00E944900EC
S1130910EC01892BB1F7CE01DF91CF911F910F919B
S113092008959F92AF92BF92CF92DF92EF92FF927F
S11309300F931F93CF93DF9300D000D01F92CDB7B6
S1130940DEB78C016B015D834C83A22EB12C9924FC
S113095093947C0188E0E80EF11C0FB6F8940F9292
S1130960F801928D838D981718F0F2E0AF1219C038
S11309704A2DB601C8010E947703F8019189992391
S113098049F0C80141960E943C09882331F00E9435
S1130990BF0203C081110E94BF020F900FBE81E00D
S11309A050C08C819D81892B21F40F900FBE80E073
S11309B048C0B11005C0CE0101960E948409B92C2B
S11309C00F900FBE0E9470070FB6F8940F92F801B3
S11309D0858D8F3F09F4158EF801868D8F3F09F4BC
S11309E0168E0F900FBEBE016C5F7F4FCE01019635
S11309F00E948F0981111FC00FB6F8940F92F8015D
S1130A00928D0F900FBE838D98130FC06C817D81E2
S1130A10C7010E942A09C8010E94DA030E94310812
S1130A2081119BCF0E94BF0298CFC8010E94DA03B4
S1130A300E94310892CFC8010E94DA030E94310853
S1130A4080E00F900F900F900F900F90DF91CF9157
S1130A501F910F91FF90EF90DF90CF90BF90AF90D8
S1130A609F9008958F929F92AF92BF92CF92DF9200
S1130A70EF92FF920F931F93CF93DF9300D000D098
S1130A801F92CDB7DEB78C015B015D834C83822E50
S1130A90E12C992493946C0181E1C80ED11C0FB60A
S1130AA0F8940F92F801F28CFF2041F1C680D780B0
S1130AB0B501C8010E94C00381100FC0FA94F80167
S1130AC0F28E80858823B1F0C80108960E943C0903
S1130AD0882381F00E94BF020DC0F801D782C6822C
S1130AE08189882339F0C80141960E943C0981110B
S1130AF00E94BF020F900FBE81E057C08C819D8180
S1130B00892B21F40F900FBE80E04FC0E11005C087
S1130B10CE0101960E948409E92C0F900FBE0E9419
S1130B2070070FB6F8940F92F801858D8F3F09F482
S1130B30158EF801868D8F3F09F4168E0F900FBE27
S1130B40BE016C5F7F4FCE0101960E948F09811117
S1130B501EC00FB6F8940F92F801828D0F900FBE4D
S1130B6081110FC06C817D81C6010E942A09C801D0
S1130B700E94DA030E943108811191CF0E94BF02C2
S1130B808ECFC8010E94DA030E94310888CFC801C1
S1130B900E94DA030E9431080FB6F8940F92F8010C
S1130BA0828D0F900FBE81117ACF0F900F900F900E
S1130BB00F900F90DF91CF911F910F91FF90EF90C5
S1130BC0DF90CF90BF90AF909F908F900895FFCF0C
S1130BD0E091E202F091E3028081811107C08FEF7E
S1130BE09FEF9093CD028093CC020895E091E202AE
S1130BF0F091E3020580F681E02D0680F781E02D77
S1130C00828193819093CD028093CC0208950F93B7
S1130C101F93CF93DF93EC010091D4021091D5027E
S1130C20809108039091090302960E947A01C00FF3
S1130C30D11FE0910803F0910903D383C283C01745
S1130C40D10768F460910803709109038091E00270
S1130C509091E1026E5F7F4F0E94490117C060913D
S1130C600803709109038091E2029091E3026E5FA0
S1130C707F4F0E9449018091CC029091CD02C81708
S1130C80D90720F4D093CD02C093CC02DF91CF9149
S1130C901F910F9108954F925F926F927F928F925E
S1130CA09F92AF92BF92CF92DF92EF92FF920F93F7
S1130CB0CF93DF934C016B015A012901CA010E94B1
S1130CC049003C01892B09F4D0C086E290E00E94DF
S1130CD04900EC01892B71F0788E6F8A81E0A81AA3
S1130CE0B108A60CB71CD6018C91898F8C91811107
S1130CF005C018C0C3010E94E300B7C0AE01465E40
S1130D005F4FF6013196B8E0CB0ED11CCF01219193
S1130D10DA012D93AD01DC018C91882319F0EC15D7
S1130D20FD05A1F718A2011101E00E8B6E01B2E0DE
S1130D30CB0ED11CC6010E942401CE010C960E9448
S1130D402401D987C88782E090E0801B91099D87A0
S1130D508C87DB8BCA8B19A21AA21BA21CA21DA210
S1130D60A201B401C5010E941E0299838883E11483
S1130D70F10419F0F701D183C0830FB6F8940F92F0
S1130D808091D6028F5F8093D60280910803909160
S1130D900903892B49F5D0930903C0930803809173
S1130DA0D602813089F586EF92E00E9416018FEF1A
S1130DB092E00E9416018DEE92E00E94160184EEEC
S1130DC092E00E94160187ED92E00E9416018DEEDA
S1130DD092E09093E3028093E20284EE92E0909397
S1130DE0E1028093E00210C08091D20281110CC014
S1130DF0E0910803F091090396898E89891720F000
S1130E00D0930903C09308038091CE028F5F80932F
S1130E10CE028E899091D302981710F48093D30256
S1130E2090E09C01220F331F220F331F220F331F28
S1130E30820F931FB6018A509D4F0E9428010F9084
S1130E400FBE8091D202882361F0E0910803F091F3
S1130E50090396898E89981730F40E94BF0281E0B5
S1130E6005C081E003C081E001C08FEFDF91CF9125
S1130E700F91FF90EF90DF90CF90BF90AF909F9035
S1130E808F907F906F905F904F900895EF92FF92B4
S1130E900F930F2EFAECEF2EF2E0FF2EF02D00E070
S1130EA020E030E044E650E062E670E087EE95E052
S1130EB00E944B06813081F4F8948FEF9FEF90935A
S1130EC0CD028093CC0281E08093D2021092D502AD
S1130ED01092D4020E948A020F91FF90EF9008951D
S1130EE08091C9028F5F8093C9020895CF92DF92E7
S1130EF0EF92FF920F931F93CF93DF938091C902D8
S1130F00811199C0E090D402F090D5028FEFE81AD5
S1130F10F80AF092D502E092D402E114F104B9F493
S1130F208091E2029091E3022091E0023091E1028B
S1130F303093E3022093E2029093E1028093E00273
S1130F408091CF028F5F8093CF020E94E805809149
S1130F50CC029091CD02E816F90610F4D12C53C0BE
S1130F60D12CCC24C394E091E202F091E30280817D
S1130F70811107C08FEF9FEF9093CD028093CC0235
S1130F8042C0E091E202F091E3020580F681E02D97
S1130F90C681D7818A819B81E816F90628F490934B
S1130FA0CD028093CC022FC08E010E5F1F4FC8016B
S1130FB00E947A018C899D89892B21F0CE010C969F
S1130FC00E947A018E899091D302981710F480932D
S1130FD0D30290E09C01220F331F220F331F220FF4
S1130FE0331F820F931FB8018A509D4F0E9428011E
S1130FF0E0910803F09109039E898689981708F403
S1131000B2CFDC2CB0CFE0910803F09109038689BC
S113101090E0FC01EE0FFF1FEE0FFF1FEE0FFF1F0E
S11310208E0F9F1FFC01EA50FD4F8081823048F0F3
S1131030DD24D39406C08091D1028F5F8093D102C6
S1131040D12C8091D002882311F0DD24D3948D2DEE
S1131050DF91CF911F910F91FF90EF90DF90CF9090
S11310600895DF92EF92FF920F931F93CF93DF9334
S11310700FB6F8940F928091C90281508093C902EF
S11310808091C90281115FC08091D602811133C061
S11310905DC0D7011596ED91FC911697C681D78155
S11310A0CE010C960E947A018E010E5F1F4FC8017B
S11310B00E947A018E899091D302981710F480933C
S11310C0D30290E09C01220F331F220F331F220F03
S11310D0331F820F931FB8018A509D4F0E9428012D
S11310E0E0910803F09109039E898689981768F0B6
S11310F0D092D0020AC0C0E0D0E00F2EF7EDEF2E60
S1131100F2E0FF2EF02DDD24D394F70180818111CC
S1131110C0CFCD2B11F00E94E805C091D102CC23A1
S113112051F0D1E00E9476078111D093D002C150D2
S1131130C9F71092D1028091D002882331F00E9425
S1131140BF0281E003C080E001C080E00F900FBEC9
S1131150DF91CF911F910F91FF90EF90DF90089551
S1131160CF93DF93EC01892B51F00E94700760E06C
S1131170CE010E9407060E943108811102C00E941C
S1131180BF02DF91CF9108958091C902882321F095
S113119081E08093D00208951092D0022091D3026E
S11311A0822F90E0FC01EE0FFF1FEE0FFF1FEE0FEA
S11311B0FF1FE80FF91FEA50FD4F3081311111C0B4
S11311C02150822F90E0FC01EE0FFF1FEE0FFF1F56
S11311D0EE0FFF1FE80FF91FEA50FD4F3081332354
S11311E079F3AC01440F551F440F551F440F551F8D
S11311F0480F591FDA01AA50BD4F1196ED91FC9189
S113120012970280F381E02D1296FC93EE931197CE
S113121047505D4FE417F50729F442815381FD01DE
S113122052834183FC01EE0FFF1FEE0FFF1FEE0FF1
S1131230FF1F8E0F9F1FFC01EA50FD4F0180F281BA
S1131240E02D86819781909309038093080320936E
S1131250D3020895CF93DF93EB016091080370915B
S11312600903645F7F4F0E94490161E0CE010E943F
S11312700706DF91CF9108950F931F93CF93DF93C8
S1131280DC011596ED91FC911697C681D7818E01EC
S1131290045F1F4FC8010E947A018091C902811125
S11312A01CC00A501109C8010E947A018E899091CC
S11312B0D302981710F48093D30290E09C01220F7C
S11312C0331F220F331F220F331F820F931FB801C6
S11312D08A509D4F0E94280105C0B80187ED92E015
S11312E00E942801E0910803F09109039E898689F0
S11312F0891720F481E08093D00201C080E0DF915F
S1131300CF911F910F9108952091CF02FC0120836A
S11313102091D4023091D502328321830895CF9352
S1131320DF93FC010FB6F8940F922091D402309110
S1131330D5028091CF029081981729F08181928102
S113134028173907B0F4A181B281EB014881598192
S1131350C9018A1B9B0B8417950768F4CF01A21B54
S1131360B30B4A0F5B1F598348830E94840980E0B2
S113137003C081E001C081E00F900FBEDF91CF91E7
S1131380089581E08093D0020895FB01DC0102C03E
S113139001900D9241505040D8F70895F894FFCF32
S10B13A0570249444C450000CA
S9030000FC
