S01E00004652454552544F535F415F46495253542D73686F6F742E73726563BB
S11300000C942A000C9447000C9447000C9447006D
S11300100C9447000C9447000C9447000C9476020F
S11300200C9447000C9447000C9447000C94470030
S11300300C9447000C9447000C9447000C94470020
S11300400C9447000C9447000C9447000C94470010
S11300500C94470011241FBECFE5D8E0DEBFCDBF0E
S113006010E0A0E6B0E0EAEEFCE002C005900D92DC
S1130070A836B107D9F723E0A8E6B0E001C01D9285
S1130080A532B207E1F70E94F8000C9473060C94B1
S11300900000CF93DF93EC010E947104209168006B
S11300A030916900C9018C0F9D1F883542E0940787
S11300B058F42817390758F4E901C659DF4F9093CB
S11300C069008093680005C0C0E0D0E002C0C0E0D1
S11300D0D0E00E943B05CE01DF91CF9108950895B1
S11300E0FC010396928381832FEF3FEF34832383B4
S11300F0968385839087878310820895FC011186F7
S113010010860895CF93DF93FC01DB0121813281B6
S1130110E9018A819B8113969C938E931297818126
S1130120928115969C938E9314978A819B81EC01FE
S11301307D836C83E9017B836A837283618319966F
S1130140FC93EE93189780818F5F8083DF91CF912A
S11301500895FC01A281B3818481958115969C93B5
S11301608E931497A481B5818281938113969C9375
S11301708E931297A085B18511968D919C911297BB
S1130180E817F90731F48481958112969C938E9334
S11301901197118610868C9181508C9308958C014F
S11301A0C0E0D1E085B38D2785BB80E090E00E945C
S11301B0CB038BBB8FEF9FEF0197F1F78FEF9FEF8F
S11301C00197F1F76D2F80E090E00E94D90380E061
S11301D090E00E94CB038BBB63E0C8010E94D9036B
S11301E0CF5FC530F9F680E090E00E948203DACF59
S11301F0AF92BF92CF92DF92EF92FF920F938FEF65
S11302008ABB87BB84BB81BBA12CB12CC12CD12C54
S1130210E12CF12C02E020E030E045E550E060E024
S113022070E08FEC90E00E9479020E94460480E026
S113023090E00F91FF90EF90DF90CF90BF90AF9040
S1130240089531E1FC013083319722E22083319714
S1130250A3E3A08331976083319770833197108231
S1130260319760E8608331971082319762E0608350
S1130270319763E06083319764E06083319765E090
S11302806083319766E06083319767E060833197DC
S113029068E06083319769E06083319760E160834F
S11302A031973083319732E13083319733E13083B2
S11302B0319734E13083319735E13083319736E13A
S11302C03083319737E13083319738E13083319788
S11302D039E13083319730E23083319731E2308332
S11302E031972083319723E22083319740833197DC
S11302F05083319726E22083319727E22083319778
S113030028E22083319729E22083319720E3208358
S1130310319721E32083869708951BBC8CE78ABD1F
S11303208BE08EBD89B7806189BFA0912303B09112
S11303302403CD91CDBFDD91DEBFFF91EF91DF911D
S1130340CF91BF91AF919F918F917F916F915F9169
S11303504F913F912F911F910F91FF90EF90DF905C
S1130360CF90BF90AF909F908F907F906F905F9051
S11303704F903F902F901F900F900FBE0F900895B5
S113038081E008950F920FB6F8940F921F921124F2
S11303902F923F924F925F926F927F928F929F9291
S11303A0AF92BF92CF92DF92EF92FF920F931F937F
S11303B02F933F934F935F936F937F938F939F9369
S11303C0AF93BF93CF93DF93EF93FF93A091230356
S11303D0B09124030DB60D920EB60D920E94F10554
S11303E0A0912303B0912403CD91CDBFDD91DEBF55
S11303F0FF91EF91DF91CF91BF91AF919F918F9139
S11304007F916F915F914F913F912F911F910F9128
S1130410FF90EF90DF90CF90BF90AF909F908F9020
S11304207F906F905F904F903F902F901F900F9010
S11304300FBE0F9008950F920FB6F8940F921F926B
S113044011242F923F924F925F926F927F928F92DC
S11304509F92AF92BF92CF92DF92EF92FF920F934F
S11304601F932F933F934F935F936F937F938F9338
S11304709F93AF93BF93CF93DF93EF93FF93A09199
S11304802303B09124030DB60D920EB60D920E9473
S113049077040E94F105A0912303B0912403CD9128
S11304A0CDBFDD91DEBFFF91EF91DF91CF91BF9181
S11304B0AF919F918F917F916F915F914F913F91F8
S11304C02F911F910F91FF90EF90DF90CF90BF90ED
S11304D0AF909F908F907F906F905F904F903F90E0
S11304E02F901F900F900FBE0F9008950E941B0233
S11304F018954F925F926F927F928F929F92AF92D4
S1130500BF92CF92DF92EF92FF920F931F93CF93FC
S1130510DF935C014B01EA01290181E290E00E9432
S113052049003C01009709F4DBC0C114D10409F06F
S1130530D2C0CE010E944900F301908F878B0097AF
S113054021F4C3010E946F00CBC0AE0165EA70E0E4
S11305500E945D062197F3018789908DC80FD91FEA
S113056048E050E0B401C30149960E946406F301D7
S113057010A2102F053008F014E0F301168B63016C
S1130580F2E0CF0ED11CC6010E947E00C3010C967E
S11305900E947E00F3017186608685E090E0811BF5
S11305A0910995878487738A628AA201B501CE0175
S11305B00E942101F30191838083E114F10419F075
S11305C0F701718260820FB6F8940F928091CC0289
S11305D08F5F8093CC028091230390912403892B15
S11305E0A1F570922403609223038091CC028130A0
S11305F0D9F5C6EFD2E00F2EF3E2EF2EF3E0FF2E93
S1130600F02DCE010E9470002996CE15DF05C9F7A2
S11306108DEE92E00E94700084EE92E00E947000E1
S113062087ED92E00E9470008EEC92E00E947000D0
S11306308DEE92E09093E3028093E20284EE92E0E6
S11306409093E1028093E0020FC08091C702811170
S11306500BC0E0912303F09124038689081720F04E
S11306607092240360922303F30186899091C90256
S1130670981710F48093C9029091C2029F5F9093DF
S1130680C2029091C802981710F48093C80290E0B7
S11306909C01220F331F220F331F220F331F820F9F
S11306A0931FB6018A509D4F0E9482000F900FBE87
S11306B08091C702882359F0E0912303F091240329
S11306C08689801730F40E94C20181E00AC081E06B
S11306D008C081E006C0FC01D08EC78AC60135CFB0
S11306E08FEFDF91CF911F910F91FF90EF90DF90EB
S11306F0CF90BF90AF909F908F907F906F905F90BE
S11307004F900895EF92FF920F931F93CF93DF932F
S1130710EC010FB6F8940F92809123039091240377
S11307208C179D0711F0209739F4C0912303D091C1
S11307302403E12CF12C01C07E018E010E5F1F4FBA
S1130740C8010E94A9008C899D89892B21F0CE01C2
S11307500C960E94A900B8018EEC92E00E948200DF
S11307608091CD028F5F8093CD028091C2028F5F12
S11307708093C2020F900FBE8091C702882321F09C
S1130780EF2811F40E94C201DF91CF911F910F91C4
S1130790FF90EF9008950FB6F8940F92009721F40C
S11307A080912303909124030F900FBEFC0186894E
S11307B00895EF92FF921F93CF93DF93EC0165307E
S11307C008F064E00FB6F8940F928091230390919F
S11307D024038C179D0711F0209739F4C09123034B
S11307E0D091240320E030E001C09E018E89861759
S11307F009F444C0861728F411E0232B31F410E0E7
S113080004C011E0232B09F010E06E8B25E030E0EA
S1130810261B31093D872C8790E09C01220F331F52
S1130820220F331F220F331F820F931F8A509D4FB5
S11308302A853B8528173907E9F47E0182E0E80E12
S1130840F11CC7010E94A9008E899091C8029817D3
S113085010F48093C80290E09C01220F331F220FF2
S1130860331F220F331F820F931FB7018A509D4FEE
S11308700E948200113011F40E94C2010F900FBE39
S1130880DF91CF911F91FF90EF900895AF92BF92A7
S1130890CF92DF92EF92FF920F93A12CB12CC12C37
S11308A0D12CE12CF12C00E020E030E045E550E0D3
S11308B062E670E081EC95E00E947902813049F4AF
S11308C0F8948093C7021092CB021092CA020E943D
S11308D08D010F91FF90EF90DF90CF90BF90AF907C
S11308E008958091C6028F5F8093C60208950F9386
S11308F01F93CF93DF938091C6028111B2C0809180
S1130900CA029091CB0201969093CB028093CA02C3
S11309108091CA029091CB02892B99F58091E202D1
S11309209091E3022091E0023091E1023093E302DE
S11309302093E2029093E1028093E0028091C3024B
S11309408F5F8093C302E091E202F091E302808121
S1130950811107C08FEF9FEF909361008093600037
S113096010C0E091E202F091E3020580F681E02DEF
S11309700680F781E02D82819381909361008093BA
S113098060002091CA023091CB0280916000909166
S113099061002817390708F469C0E091E202F09178
S11309A0E3028081882399F0E091E202F091E3026E
S11309B00580F681E02DC681D7818A819B812091B3
S11309C0CA023091CB0228173907F8F419C08FEF07
S11309D09FEF909361008093600048C0E091E20231
S11309E0F091E3020580F681E02DC681D7818A81EA
S11309F09B812091CA023091CB022817390728F431
S1130A00909361008093600031C08E010E5F1F4F90
S1130A10C8010E94A9008C899D89892B21F0CE01EF
S1130A200C960E94A9008E899091C802981710F420
S1130A308093C80290E09C01220F331F220F331FC2
S1130A40220F331F820F931FB8018A509D4F0E94BB
S1130A508200E091E202F091E30280818111BECF35
S1130A60B6CF8091C5028F5F8093C502DF91CF918D
S1130A701F910F910895CF92DF92EF92FF920F93FF
S1130A801F93CF93DF930FB6F8940F928091C60211
S1130A9081508093C6028091C602811164C0809106
S1130AA0CC02811132C062C0D7011596ED91FC9140
S1130AB01697C681D781CE010C960E94A9008E019B
S1130AC00E5F1F4FC8010E94A9008E899091C80231
S1130AD0981710F48093C80290E09C01220F331FF2
S1130AE0220F331F220F331F820F931FB8018A5026
S1130AF09D4F0E948200E0912303F09124039E897C
S1130B008689981758F0DC2C09C0D12C0F2EF7EDEC
S1130B10EF2EF2E0FF2EF02DCC24C394F701808158
S1130B208111C2CF8091C502882381F08091C502D2
S1130B30882399F00E9477048091C50281508093A4
S1130B40C5028091C5028111F5CF07C0F1E0DF161F
S1130B5021F08091C402813041F41092C4020E94B9
S1130B60C20181E003C080E001C080E00F900FBEAD
S1130B70DF91CF911F910F91FF90EF90DF90CF9075
S1130B8008950EEC12E08091CD028823E1F30E94D7
S1130B907104D801CC910E943B05CC23A1F30FB67C
S1130BA0F8940F92D8011596ED91FC911697C68191
S1130BB0D781CE0102960E94A9008091CC02815077
S1130BC08093CC028091CD0281508093CD020F900E
S1130BD00FBE8F89988D0E946F00CE010E946F0016
S1130BE0D2CF8091C602811113C08091C80290E0D7
S1130BF0FC01EE0FFF1FEE0FFF1FEE0FFF1F8E0F06
S1130C009F1FFC01EA50FD4F8081882329F01BC0FF
S1130C1081E08093C40208958091C802815080933A
S1130C20C8028091C80290E0FC01EE0FFF1FEE0F96
S1130C30FF1FEE0FFF1F8E0F9F1FFC01EA50FD4F99
S1130C408081882349F38091C80290E09C01220F9F
S1130C50331F220F331F220F331F280F391FD901CF
S1130C60AA50BD4F1196ED91FC9112970280F38129
S1130C70E02D1296FC93EE93119727503D4FE21707
S1130C80F30729F422813381FD0132832183FC019E
S1130C90EE0FFF1FEE0FFF1FEE0FFF1F8E0F9F1FA4
S1130CA0FC01EA50FD4F0180F281E02D868197819D
S1130CB090932403809323030895DC0101C06D9372
S1130CC041505040E0F70895FB01DC014150504091
S1130CD048F001900D920020C9F701C01D924150C7
S10D0CE05040E0F70895F894FFCFA8
S10B0CEAFFFF49444C450000E2
S9030000FC
